:100000000C9436000C945E000C945E000C945E0020
:100010000C945E000C945E000C945E000C945E00E8
:100020000C945E000C945E000C945E000C945E00D8
:100030000C945E000C945E000C945E000C945E00C8
:100040000C9447050C945E000C94F3050C945E0030
:100050000C945E000C945E000C945E000C945E00A8
:100060000C94AB020C945E00A8013C0711241FBE47
:10007000CFEFD4E0DEBFCDBF11E0A0E0B1E0ECE710
:10008000F2E102C005900D92A831B107D9F712E054
:10009000A8E1B1E001C01D92A030B107E1F710E086
:1000A000CCE6D0E004C02297FE010E943809C83691
:1000B000D107C9F70E94EB040C943C090C94000092
:1000C0000F931F93CF93DF93689F8001699F100D5B
:1000D000789F100D1124C8010E947C00EC0100974C
:1000E00029F060E070E0A8010E947E01CE01DF915E
:1000F000CF911F910F910895CF93DF93BC01823070
:10010000910510F462E070E0A091FE01B091FF0152
:10011000ED01E0E0F0E040E050E021C0888199810D
:100120008617970769F48A819B81309719F093832A
:10013000828304C09093FF018093FE01FE0134C0CE
:100140006817790738F44115510519F08417950798
:1001500008F4AC01FE018A819B819C01E901209792
:10016000E9F641155105A9F1CA01861B970B0497C1
:1001700008F4BA01E0E0F0E02AC08D919C9111975B
:1001800084179507F9F46417750781F412968D9119
:100190009C911397309719F09383828304C09093B6
:1001A000FF018093FE01FD0132964CC0CA01861BFF
:1001B000970BFD01E80FF91F6193719302978D93DF
:1001C0009C9340C0FD01828193819C01D9011097CD
:1001D000A1F68091FC019091FD01892B41F4809161
:1001E000090190910A019093FD018093FC014091D7
:1001F0000B0150910C014115510541F44DB75EB70B
:100200008091070190910801481B590B2091FC0136
:100210003091FD01CA01821B930B8617970780F06E
:10022000AB014E5F5F4F8417950750F0420F531F8D
:100230005093FD014093FC01F9016193719302C059
:10024000E0E0F0E0CF01DF91CF910895CF93DF930D
:10025000009709F450C0EC0122971B821A82A091EA
:10026000FE01B091FF01109709F140E050E0AC179A
:10027000BD0708F1BB83AA83FE0121913191E20FF2
:10028000F31FAE17BF0779F48D919C911197280F3A
:10029000391F2E5F3F4F3983288312968D919C9191
:1002A00013979B838A834115510571F4D093FF0105
:1002B000C093FE0120C012968D919C911397AD01C1
:1002C000009711F0DC01D3CFFA01D383C2832191CF
:1002D0003191E20FF31FCE17DF0769F4888199810E
:1002E000280F391F2E5F3F4FFA01318320838A8107
:1002F0009B8193838283DF91CF910895DC0101C0BC
:100300006D9341505040E0F7089581E080932101C2
:1003100060931C0110921F0110922001089580919A
:100320001B0190911A01891B089590911A018091E7
:100330001B01981710F080E00895E0911801F091EA
:100340001901E90FF11D80819F5F90931A010895B3
:100350000895DF93CF930F92CDB7DEB76983809175
:1003600021018823A9F0809120018032B0F480918E
:100370001F01E0911D01F0911E01E80FF11D608346
:1003800080911F018F5F80931F018093200105C022
:10039000CE01019661E00E948E020F90CF91DF9115
:1003A000089560911D0170911E0180911C01409182
:1003B000200121E00E94490210921F0110922001A9
:1003C000109221010895862F6091180170911901F2
:1003D000413208F040E20E94110210921A0180930B
:1003E0001B01089580E290E061E070E00E946000EF
:1003F000809318019093190110921A0110921B0119
:1004000080E290E061E070E00E94600080931D0156
:1004100090931E0110921F01109220010E942D0442
:100420000895982F413210F040E031C080912301AF
:100430008823E1F781E0809323018FEF80933401DB
:1004400010922B01415040932C014F5F990F916006
:100450009093240185EE8093BC008091230181302C
:10046000E1F380912B01841710F440912B01A091AE
:100470002901B0912A0120E030E007C0FB01E20F22
:10048000F31F8D9180832F5F3F4F2417B8F3842F84
:1004900008951F93582F122F413210F081E03CC075
:1004A000809123018823E1F782E0809323018FEF7D
:1004B0008093340110922B0140932C01A0912901CB
:1004C000B0912A01FB0102C081918D938E2F861B72
:1004D0008417D0F3852F90E0880F991F8093240113
:1004E00085EE8093BC00112321F08091230182309E
:1004F000E1F3809134018F3F11F480E00DC08091D1
:100500003401803211F482E007C0809134018033DD
:1005100011F084E001C083E01F910895482F6132FB
:1005200010F081E0089580912301843011F082E081
:10053000089560933001A0912D01B0912E01842F78
:100540009C01F90102C081918D938E2F841B861727
:10055000D0F380E008951F920F920FB60F921124EE
:100560002F933F934F935F936F937F938F939F93BB
:10057000AF93BF93EF93FF938091B90090E0887F92
:1005800090708036910509F4E2C081369105CCF572
:100590008832910509F47BC089329105B4F4803129
:1005A000910509F46FC0813191053CF4009709F47D
:1005B00038C1089709F040C165C08831910509F438
:1005C00066C0809709F038C17FC08034910509F476
:1005D000A3C08134910544F48033910509F47FC0B0
:1005E000C89709F029C186C08035910509F486C0F5
:1005F0008835910509F495C08834910509F01CC12E
:100600009EC08839910509F404C189399105ECF43B
:100610008837910509F49BC0893791054CF48836D9
:10062000910509F494C08037910509F005C18FC088
:100630008838910509F4EDC08039910509F48DC021
:100640008038910509F0F8C088C0803B910509F415
:10065000B2C0813B91054CF4803A910509F491C0F8
:10066000883A910509F0E8C0A6C0803C910509F4DC
:10067000D4C0883C910509F4D0C0883B910509F0AD
:10068000DBC0B1C0809124018093BB00C0C09091B9
:100690002B0180912C01981778F490912B01E09117
:1006A0002901F0912A01E90FF11D80818093BB009F
:1006B0009F5F90932B01ABC085ED8093BC00809130
:1006C000BC0084FDFCCFB6C080E28093340185ED90
:1006D0008093BC008091BC0084FDFCCFABC080E364
:1006E0008093340185ED8093BC008091BC0084FD33
:1006F000FCCFA0C088E3809334018FC080912B0190
:100700009091BB00E0912901F0912A01E80FF11DC1
:1007100090838F5F80932B0190912B0180912C010E
:1007200074C080912B019091BB00E0912901F09160
:100730002A01E80FF11D90838F5F80932B0185EDD7
:100740008093BC008091BC0084FDFCCF73C083E02B
:1007500080932301109233015AC08091330180327B
:1007600008F057C0809133019091BB00E0913101B6
:10077000F0913201E80FF11D90838F5F8093330178
:1007800046C080913301803248F480913301E0917A
:100790003101F0913201E80FF11D108260913301B7
:1007A000E0912701F091280180913101909132016F
:1007B00070E0099532C084E08093230110922F01EC
:1007C00010923001E0912501F09126010995809168
:1007D0003001882341F481E080933001E0912D01C4
:1007E000F0912E01108290912F01E0912D01F09156
:1007F0002E01E90FF11D80818093BB009F5F9093D4
:100800002F0190912F0180913001981710F485EC01
:1008100001C085E88093BC000FC085EC8093BC00CC
:1008200009C01092340185ED8093BC008091BC001A
:1008300084FDFCCF10922301FF91EF91BF91AF9106
:100840009F918F917F916F915F914F913F912F91E8
:100850000F900FBE0F901F90189510922301449A8D
:10086000459AE9EBF0E080818E7F808380818D7FE7
:10087000808388E48093B80085E48093BC0080E2A4
:1008800090E061E070E00E94600080932901909305
:100890002A0180E290E061E070E00E9460008093B5
:1008A0002D0190932E0180E290E061E070E00E94C3
:1008B000600080933101909332010895CF93DF93CC
:1008C00080915B0167E4409135010E9425056091AC
:1008D0003501709136016E5F7F4F709338016093E0
:1008E000370180915B0149E351E00E94F2048F5F80
:1008F0009F4FD9F189EE91E060E071E00E94AD0771
:10090000609135017091360189EE91E00E94960860
:1009100089EE91E063E071E00E94AD07C0E0D0E0B5
:100920001CC0FE01E75CFE4F408150E060E070E0DB
:1009300089EE91E02AE030E00E949E088091370124
:10094000909138010197C817D90734F489EE91E0E6
:1009500063E071E00E94AD0721968091370190918C
:100960003801C817D907ECF206C089EE91E065E0BE
:1009700071E00E94AD0789EE91E063E071E00E94B2
:10098000CC07809135019091360101969093360104
:10099000809335014F9724F0109236011092350163
:1009A00068EE73E080E090E00E948F05DF91CF91C8
:1009B00008950E94420580915B0163E540910D011D
:1009C0000E94250589EE91E040E052EC61E070E084
:1009D0000E94300608950E94B9050E94D9040E9421
:1009E0005E04FDCFEF92FF920F931F93CF93DF939F
:1009F000282F162F7A0182E291E0622F412F0E9468
:100A0000E30182E291E00E948F01882319F42FEF25
:100A10003FEF13C0C0E0D0E0012F10E009C082E238
:100A200091E00E949501F701EC0FFD1F8083219654
:100A3000C017D107A4F320E030E0C901DF91CF91C6
:100A40001F910F91FF90EF900895EF92FF920F93F7
:100A50001F93282FF62EE42E02E211E0C801622F28
:100A60000E948501C8016F2D0E94A901C8016E2D49
:100A70000E94A901C8010E94D1011F910F91FF900E
:100A8000EF90089582E291E00E94F20108951F9292
:100A90000F920FB60F9211242F933F938F939F9332
:100AA000AF93BF938091600190916101A091620129
:100AB000B0916301309164010196A11DB11D232FF6
:100AC0002D5F2D3720F02D570196A11DB11D2093CC
:100AD00064018093600190936101A0936201B093DF
:100AE000630180915C0190915D01A0915E01B091E4
:100AF0005F010196A11DB11D80935C0190935D0182
:100B0000A0935E01B0935F01BF91AF919F918F91D0
:100B10003F912F910F900FBE0F901F901895EF925D
:100B2000FF920F931F937B018C018FB7F894409134
:100B300060015091610160916201709163018FBF0A
:100B40002FB7F8948091600190916101A0916201AA
:100B5000B09163012FBF841B950BA60BB70BE81652
:100B6000F9060A071B0760F71F910F91FF90EF909E
:100B70000895789484B5826084BD84B5816084BD15
:100B800085B5826085BD85B5816085BDEEE6F0E006
:100B9000808181608083E1E8F0E0808182608083F1
:100BA000808181608083E0E8F0E0808181608083E3
:100BB000E1EBF0E0808184608083E0EBF0E0808115
:100BC00081608083EAE7F0E08081846080838081B7
:100BD000826080838081816080838081806880835F
:100BE0001092C10008951F920F920FB60F92112418
:100BF0002F933F934F935F936F937F938F939F9325
:100C0000AF93BF93EF93FF934091C600E091E5014E
:100C1000F091E601CF01019660E870E00E94D208F1
:100C20009C018091E7019091E8012817390739F07C
:100C3000EB59FE4F40833093E6012093E501FF918D
:100C4000EF91BF91AF919F918F917F916F915F9144
:100C50004F913F912F910F900FBE0F901F901895BD
:100C60005F926F927F928F929F92AF92BF92CF923C
:100C7000DF92EF92FF920F931F93CF93DF93EC01DC
:100C80003A014B01413482E458078FE0680780E065
:100C900078070CF07FC060E874E88EE190E0A40172
:100CA00093010E9407092150304040405040CA0142
:100CB000B90122E030E040E050E00E94070959010C
:100CC0006A01A6019501209530954095509594E0D4
:100CD000220F331F441F551F9A95D1F760E074E22D
:100CE00084EF90E00E940709CA01B9012FEF30E0BC
:100CF00040E050E00E94B308A40193010E9407095C
:100D0000C90181509F4F181619061CF4522E5A948F
:100D100003C055245394521A60E079E08DE390E0CB
:100D2000A40193010E9407092150304040405040E7
:100D3000CA01B90122E030E040E050E00E9407091A
:100D4000209530954095509583E0220F331F441F26
:100D5000551F8A95D1F760E074E284EF90E00E941D
:100D60000709CA01B9012FEF30E040E050E00E94CE
:100D7000B308A40193010E940709C90181509F4F44
:100D8000181619061CF4822F815002C081E0821BC4
:100D9000851500F5E885F98581E090E00A8802C0B4
:100DA000880F991F0A94E2F7808360E079E08DE371
:100DB00090E0A40193010E94070921503040404077
:100DC0005040CA01B90122E030E040E050E00E940A
:100DD000070904C0E885F98510829501EC81FD8141
:100DE0003083EE81FF812083EA85FB85208141E00D
:100DF00050E0CA010E8402C0880F991F0A94E2F7DE
:100E0000282B2083EA85FB852081CA010F8402C03C
:100E1000880F991F0A94E2F7282B2083EA85FB8527
:100E20008081088802C0440F551F0A94E2F7842B82
:100E30008083DF91CF911F910F91FF90EF90DF9012
:100E4000CF90BF90AF909F908F907F906F905F906A
:100E50000895FC01A085B18521898C9190E0022E36
:100E600002C0959587950A94E2F780FFF6CF048437
:100E7000F585E02D6083089582E191E09093EA0189
:100E80008093E90185E691E09093EC018093EB017A
:100E900085EC90E09093EE018093ED0184EC90E07E
:100EA0009093F0018093EF0180EC90E09093F20139
:100EB0008093F10181EC90E09093F4018093F30131
:100EC00086EC90E09093F6018093F50184E08093A6
:100ED000F70183E08093F80187E08093F90185E0D2
:100EE0008093FA0181E08093FB0108950F931F9393
:100EF000CF93DF938C01EB0109C02196D801ED91CE
:100F0000FC910190F081E02DC8010995688166236C
:100F1000A1F7DF91CF911F910F910895EF92FF926A
:100F20000F931F93CF93DF938C017B01EA010CC0D9
:100F3000D7016D917D01D801ED91FC910190F08177
:100F4000E02DC80109952197209791F7DF91CF9166
:100F50001F910F91FF90EF900895DC01ED91FC91AE
:100F60000280F381E02D099508950F931F938C0162
:100F7000DC01ED91FC910190F081E02D6DE009958F
:100F8000D801ED91FC910190F081E02DC8016AE05B
:100F900009951F910F9108950F931F938C010E9443
:100FA000AD07C8010E94B5071F910F9108952F92B8
:100FB0003F924F925F926F927F928F929F92AF92E9
:100FC000BF92CF92DF92EF92FF920F931F93DF9326
:100FD000CF93CDB7DEB7A0970FB6F894DEBF0FBEA4
:100FE000CDBF1C016A017B014115510561057105E9
:100FF00049F4DC01ED91FC910190F081E02D60E37A
:10100000099554C0882499245401422E55246624FD
:10101000772401E010E00C0F1D1F080D191DC701FA
:10102000B601A30192010E94E508F80160830894CB
:10103000811C911CA11CB11CC701B601A301920126
:101040000E94E508C901DA016C017D01C114D104D7
:10105000E104F104F1F681E0E82EF12CEC0EFD1E26
:10106000E80CF91C3E010894611C711CD501C401F7
:101070000197A109B1096C01C818D90814C0F6017B
:10108000EE0DFF1D60816A3010F4605D01C0695C87
:10109000D101ED91FC910190F081E02DC101099504
:1010A0000894E108F1086E147F0449F7A0960FB682
:1010B000F894DEBF0FBECDBFCF91DF911F910F918E
:1010C000FF90EF90DF90CF90BF90AF909F908F9068
:1010D0007F906F905F904F903F902F900895EF9288
:1010E000FF920F931F93CF93DF93EC017A018B0153
:1010F00077FF0FC0E881F9810190F081E02D6DE26A
:10110000099510950095F094E094E11CF11C011DE7
:10111000111DCE01B801A7012AE00E94D707DF9177
:10112000CF911F910F91FF90EF900895AB0166272B
:1011300057FD6095762F0E946F080895DC012115F8
:10114000310541F4ED91FC910190F081E02D642F87
:10115000099508952A30310519F40E946F08089501
:101160000E94D7070895629FD001739FF001829F6C
:10117000E00DF11D649FE00DF11D929FF00D839F26
:10118000F00D749FF00D659FF00D9927729FB00DC3
:10119000E11DF91F639FB00DE11DF91FBD01CF01D6
:1011A0001124089597FB092E07260AD077FD04D055
:1011B00049D006D000201AF4709561957F4F0895AC
:1011C000F6F7909581959F4F0895A1E21A2EAA1BDC
:1011D000BB1BFD010DC0AA1FBB1FEE1FFF1FA217E7
:1011E000B307E407F50720F0A21BB30BE40BF50BE4
:1011F000661F771F881F991F1A9469F7609570956D
:10120000809590959B01AC01BD01CF01089597FB9E
:10121000092E05260ED057FD04D0D7DF0AD0001CBA
:1012200038F450954095309521953F4F4F4F5F4F83
:101230000895F6F790958095709561957F4F8F4F43
:101240009F4F0895AA1BBB1B51E107C0AA1FBB1FDC
:10125000A617B70710F0A61BB70B881F991F5A9542
:10126000A9F780959095BC01CD010895EE0FFF1F61
:0C1270000590F491E02D0994F894FFCF54
:10127C00312000200030002000000200000100009E
:08128C000000290776078E0718
:00000001FF
